:020000040800F2
:1000000000000320F1090008C9090008CB09000815
:10001000CD090008CF090008D10900080000000040
:10002000000000000000000000000000D3090008EC
:10003000D509000800000000D7090008D909000808
:10004000410A0008410A0008410A0008410A000864
:10005000410A0008410A0008410A0008410A000854
:10006000410A0008410A0008410A0008410A000844
:10007000410A0008410A0008410A0008410A000834
:10008000410A0008410A0008410A0008410A000824
:10009000410A0008410A0008410A0008410A000814
:1000A000410A0008410A0008410A0008410A000804
:1000B000410A0008410A0008410A0008410A0008F4
:1000C000410A0008410A0008410A0008410A0008E4
:1000D000410A0008410A0008410A0008410A0008D4
:1000E000410A0008410A0008410A0008410A0008C4
:1000F000410A0008410A0008410A0008410A0008B4
:10010000410A0008410A0008410A0008410A0008A3
:10011000410A0008410A0008410A0008410A000893
:10012000410A0008410A0008410A0008410A000883
:10013000410A0008410A0008410A0008410A000873
:10014000410A0008410A0008410A0008410A000863
:10015000410A0008410A0008410A0008410A000853
:10016000410A0008410A0008410A0008410A000843
:10017000410A0008410A0008410A00080000000086
:10018000410A0008410A0008410A0008410A000823
:10019000410A0008410A0008410A0008410A000813
:0C01A000410A0008410A0008410A00085A
:1001AC0010B5054C237833B9044B13B10448AFF3A5
:1001BC0000800123237010BD0C0000200000000003
:1001CC007C1C000808B5034B1BB103490348AFF373
:1001DC00008008BD00000000100000207C1C0008FE
:1001EC0053B94AB9002908BF00281CBF4FF0FF3192
:1001FC004FF0FF3000F070B9ADF1080C6DE904CE92
:10020C0000F006F8DDF804E0DDE9022304B07047E5
:10021C002DE9F047089E0D4604460F46002B4AD1A7
:10022C008A42944665D9B2FA82F343B102FA03FCCE
:10023C00C3F120029F4020FA02F217439C404FEA80
:10024C001C4E1FFA8CF5B7FBFEF1220C0EFB11773E
:10025C0042EA074201FB05F090420AD91CEB02026C
:10026C0001F1FF3780F01C81904240F21981023974
:10027C006244121AA4B2B2FBFEF00EFB102244EA46
:10028C00024400FB05F5A5420AD91CEB040400F15D
:10029C00FF3280F00781A54240F2048164440238A9
:1002AC0040EA0140641B00211EB1DC400023C6E97A
:1002BC000043BDE8F0878B4208D9002E00F0ED809A
:1002CC000021C6E900050846BDE8F087B3FA83F1C2
:1002DC00002949D1AB4202D3824200F2F880841A41
:1002EC0065EB030201201746002EE2D0C6E9004759
:1002FC00DFE702B9FFDEB2FA82F3002B40F0908008
:10030C008A1A4FEA1C471FFA8CFE0121B2FBF7F543
:10031C0007FB1520220C42EA00420EFB05F090422E
:10032C0008D91CEB020205F1FF3802D2904200F210
:10033C00CB804546121AA4B2B2FBF7F007FB102291
:10034C0044EA02440EFB00FEA64508D91CEB04044B
:10035C0000F1FF3202D2A64500F2BB801046A4EB9E
:10036C000E0440EA05409FE7C1F120078B4022FABA
:10037C0007FC4CEA030C05FA01F420FA07F3FD40E4
:10038C004FEA1C492343B5FBF9F81FFA8CFE09FB15
:10039C0018551C0C44EA054408FB0EF5A54202FA5C
:1003AC0001F200FA01F00BD91CEB040408F1FF3A3E
:1003BC0080F08880A54240F28580A8F10208644450
:1003CC00641B9DB2B4FBF9F309FB134445EA0444E6
:1003DC0003FB0EFEA64508D91CEB040403F1FF3504
:1003EC006CD2A6456AD9023B644443EA0843A3FB9A
:1003FC000295A4EB0E04AC42C846AE4656D353D07D
:10040C0056B1B0EB080264EB0E0404FA07F7CA40CD
:10041C00CC401743C6E9007418460021BDE8F087AC
:10042C00C3F1200102FA03FC20FA01F225FA01F1D2
:10043C009D402A434FEA1C471FFA8CFEB1FBF7F094
:10044C0007FB1015110C41EA054100FB0EF58D421E
:10045C0004FA03F408D91CEB010100F1FF382FD288
:10046C008D422DD902386144491B92B2B1FBF7F58C
:10047C0007FB151142EA014205FB0EF1914208D926
:10048C001CEB020205F1FF3816D2914214D9023D41
:10049C006244521A45EA004138E73146304608E7D3
:1004AC003946E6E61046FBE64845A9D2B9EB020808
:1004BC0065EB0C0E013BA3E74546EAE72B4694E7B8
:1004CC004046D1E7D0467BE7023D624432E708461E
:1004DC000AE76444023842E7704700BF10B594B095
:1004EC00102200210AA801F096FB1422002103A877
:1004FC0001F091FB1F4B002101911A6C42F08052CC
:10050C001A641B6C1C4A03F080530193019B0291EB
:10051C00136823F4404343F480431360136803F4DB
:10052C00404302930122029B4FF48033CDE9082310
:10053C0002244FF48003CDE90E434822042308A87B
:10054C00CDE91032CDE9124300F00AFC08B172B6C5
:10055C00FEE70F23CDE903344FF48053CDE9063089
:10056C000590214603A800F0D5FD08B172B6FEE750
:10057C0014B010BD003802400070004080B59CB033
:10058C0000F07EFAFFF7AAFF1422002114A801F054
:10059C0042FB00249E4B01941A6B9E489E4D42F0E8
:1005AC0004021A631A6B02F004020192019A02947B
:1005BC001A6B42F080021A631A6B02F080020292EC
:1005CC00029A03941A6B42F001021A631A6B02F03E
:1005DC0001020392039A04941A6B42F010021A63FC
:1005EC001A6B02F010020492049A05941A6B42F0F2
:1005FC0002021A631B6B03F00203224605934FF4AD
:10060C008141059B4FF4005800F0A4FB4FF4881374
:10061C008248169414A9CDE914834FF0100900F008
:10062C00B3FA01234FF4814E7A4814A9CDE914E3AF
:10063C00CDE9164400F0A8FA4A46214608A801F074
:10064C00EAFA1C2221460DA8CDE9064401F0E3FA92
:10065C002022214614A801F0DEFA714BAC6047272A
:10066C00C7262846C5E90037C5E90364C5E9054432
:10067C0000F006FF08B172B6FEE74FF4805308A9EC
:10068C002846089301F03FF808B172B6FEE72846F9
:10069C0000F04EFF08B172B6FEE7284600F01CFFD2
:1006AC0008B172B6FEE75023CDE9063006A92846FC
:1006BC0001F0C0F9024608B172B6FEE7CDE90F00B1
:1006CC00CDE911004FF0600C642313900DA928465E
:1006DC00CDE90DC300F0B4FF08B172B6FEE70422F9
:1006EC000DA92846CDF8349000F084FF08B172B6FD
:1006FC00FEE7CDE91400CDE91600CDE918081B90F2
:10070C0014A9284601F0D4F9044608B172B6FEE7E4
:10071C00284600F0D5F8434D43484FF4E133C0E987
:10072C0000530C23C0E90244C0E905340461C461E0
:10073C0001F042FA044608B172B6FEE701461422F3
:10074C0008A801F068FA1C2221460DA8CDE9064440
:10075C0001F061FA2022214614A801F05CFA33481A
:10076C00334B8461C0E90037C0E90246C0E9044458
:10077C0000F086FE08B172B6FEE72C4800F0D8FEF9
:10078C0008B172B6FEE70623CDE9083008A9274860
:10079C0001F0B2F808B172B6FEE7CDE9060006A981
:1007AC00224801F047F9024608B172B6FEE7602113
:1007BC006423CDE90D13CDE90F00CDE911001390A1
:1007CC000DA91A4800F03CFF08B172B6FEE7CDE95E
:1007DC001400CDE9160018904FF400531B9014A987
:1007EC001248199301F064F9044608B172B6FEE799
:1007FC000E4800F065F82146074801F019F904216C
:10080C00054801F0AFF80948214601F011F9FEE75F
:10081C00003802400004024028000020000802407A
:10082C000000014000440040B8000020700000208F
:10083C000004014082B00C4B002100915A6C42F430
:10084C0080425A645A6C02F480420092009A0191E0
:10085C001A6C42F080521A641B6C03F080530193A3
:10086C00019B02B0704700BF003802400368114A78
:10087C00934282B00DD1002300930F4B5A6C42F07F
:10088C0001025A645B6C03F001030093009B02B0FD
:10089C0070470A4A9342FAD100230193064B5A6CD3
:1008AC0042F002025A645B6C03F002030193019B59
:1008BC00EDE700BF00000140003802400004014099
:1008CC0010B5044688B01422002103A801F0A3F946
:1008DC0023681A4A934218D100230193184B1948E4
:1008EC001A6B42F010021A631B6B03F01003019396
:1008FC004FF40071019B0223CDE9031301230793ED
:10090C0003A900F041F908B010BD0F4A9342FAD187
:10091C00002302930A4B0D481A6B42F004021A632F
:10092C001B6B03F004030293029B40220223CDE9CC
:10093C0003230323079303A9E3E700BF000001404F
:10094C000038024000100240000401400008024040
:10095C0010B5044688B01422002103A801F05BF9FD
:10096C002268144B9A4222D103F5FA3300210191EB
:10097C001A6C114842F400321A641A6C02F40032F8
:10098C000192019A02911A6B42F001021A631B6BDD
:10099C0003F001030293029B0C2202230321CDE9F5
:1009AC0003230723CDE9061303A900F0EDF808B0E3
:1009BC0010BD00BF0044004000000240FEE7FEE70F
:1009CC00FEE7FEE7FEE770477047704700F072B82D
:1009DC00034AD2F8883043F47003C2F88830704769
:1009EC0000ED00E0DFF834D0FFF7F2FF0C480D49C2
:1009FC000D4A002302E0D458C4500433C4188C426E
:100A0C00F9D30A4A0A4C002301E013600432A242D3
:100A1C00FBD301F009F9FFF7B1FD7047000003208B
:100A2C00000000200C000020BC1C00080C00002062
:100A3C0004010020FEE7000038B50E4B1A784FF485
:100A4C007A73B3FBF2F30C4A05461068B0FBF3F073
:100A5C0000F086F8044658B90F2D09D802462946ED
:100A6C004FF0FF3000F04AF8044B20461D6038BDB3
:100A7C000120FCE7040000200000002008000020FA
:100A8C0008B50B4B1A6842F400721A601A6842F4EB
:100A9C0080621A601A6842F480721A60032000F0B7
:100AAC001BF80F20FFF7C8FFFFF7C4FE002008BD9E
:100ABC00003C0240034A044B11681B780B44136042
:100ACC00704700BF0001002004000020014B186893
:100ADC00704700BF000100200749CA6822F4E06299
:100AEC000302120403F4E063120C134343F0BF63DC
:100AFC0043F40033CB60704700ED00E0164B30B58B
:100B0C00DC68C4F30224C4F10703251D042B28BFA1
:100B1C000423062D4FF0FF358CBF033C002405FA4F
:100B2C0003F321EA0303A54022EA0502A3400028AF
:100B3C0043EA0203ACBF00F16040084A4FEA0313DA
:100B4C00B8BF00F00F00DBB2AABF00F56140135430
:100B5C0080F8003330BD00BF00ED00E014ED00E084
:100B6C000138B0F1807F0BD24FF0E023054A586179
:100B7C00F02182F823100020072298611A61704737
:100B8C000120704700ED00E02DE9F74FDFF8C09130
:100B9C006D4A00230D6801249C4004EA050CAC430B
:100BAC0040F0B9804D6805F003044FEA4308032672
:100BBC00671E06FA08F6012F6FEA060634D8876816
:100BCC0007EA060ECF6807FA08F747EA0E078760B0
:100BDC00476827EA0C0EC5F300179F4047EA0E073B
:100BEC004760C76807EA060E8F6807FA08F747EAF6
:100BFC000E07022CC76019D14FEAD30A00EB8A0A00
:100C0C0003F0070BDAF820704FEA8B0B4FF00F0E46
:100C1C000EFA0BFE27EA0E0E0F6907FA0BF747EADE
:100C2C000E07CAF8207001E0032CDAD1076804FA29
:100C3C0008F437403C4315F4403F04606BD04FF050
:100C4C00000ACDF804A0D9F84460404C46F4804624
:100C5C00C9F84460D9F8446006F480460196019EB8
:100C6C0023F0030606F1804606F59C3603F0030ECE
:100C7C00D6F808804FEA8E0E0F2707FA0EF7A0421F
:100C8C0028EA07074ED004F58064A0424CD004F546
:100C9C008064A0424AD004F58064A04248D004F598
:100CAC008064A04246D004F58064A04244D004F590
:100CBC008064A04242D004F58064A04240D004F588
:100CCC008064A0423ED004F58064A0420CBF09248D
:100CDC000A2404FA0EF43C43B46094686FEA0C06E0
:100CEC00EF0254BF34404CEA04049460D468AF0261
:100CFC0054BF34404CEA0404D4605468AF0354BF6E
:100D0C0034404CEA040454601468ED0354BF34407E
:100D1C004CEA040414600133102B7FF43BAF03B096
:100D2C00BDE8F08F5446D4E70124D2E70224D0E783
:100D3C000324CEE70424CCE70524CAE70624C8E73D
:100D4C000724C6E70824C4E7003C01400000024029
:100D5C00003802400AB1816170470904FBE70000CA
:100D6C002DE9F341044640B30368DD0710D4236832
:100D7C0098075BD423681A0700F19D8023685B07F2
:100D8C0000F1BD80A069002840F0248100202CE0F7
:100D9C008D4B9A6802F00C02042A07D09A6802F074
:100DAC000C02082A0BD15B68590208D5864B1B68CC
:100DBC009A03DCD56368002BD9D1012015E0636858
:100DCC00814DB3F5803F13D12B6843F480332B60F6
:100DDC00FFF77CFE7C4E054633689B03C7D4FFF7B8
:100DEC0075FE401B6428F7D9032002B0BDE8F081E2
:100DFC00B3F5A02F04D12B6843F480232B60E3E7D9
:100E0C002A6822F480322A602A6822F480222A601E
:100E1C00002BDDD1FFF75AFE06462B689F03A6D5A3
:100E2C00FFF754FE801B6428F7D9DDE7664B9A6800
:100E3C0012F00C0F07D09A6802F00C02082A11D19C
:100E4C005B685E020ED4604A13689D0702D5E368A6
:100E5C00012BB2D11368216923F0F80343EAC103D3
:100E6C00136087E7E268594BB2B101221A60FFF7B1
:100E7C002DFE554D06462B68980707D52B68226921
:100E8C0023F0F80343EAC2032B6073E7FFF71EFE5F
:100E9C00801B0228EFD9A7E71A60FFF717FE4A4E0E
:100EAC000546336899077FF565AFFFF70FFE401BCA
:100EBC000228F6D998E76269444B82B10122C3F843
:100ECC00802EFFF703FE404E0546736F9F073FF5DC
:100EDC0055AFFFF7FBFD401B0228F6D984E7C3F89A
:100EEC00802EFFF7F3FD384E0546736F98077FF59C
:100EFC0045AFFFF7EBFD401B0228F6D974E7324BE8
:100F0C001A6C12F0805228D101921A6C42F0805265
:100F1C001A641B6C03F080530193019B01272C4D29
:100F2C002B68D9051BD5A368274D012B27D12B6F17
:100F3C0043F001032B67FFF7C9FD234E054641F231
:100F4C008838336F9B0739D5002F3FF41BAF1E4AEF
:100F5C00136C23F08053136414E70027DFE72B682E
:100F6C0043F480732B60FFF7B1FD06462B68DA055E
:100F7C00D9D4FFF7ABFD801B0228F7D934E7052B3A
:100F8C0004D12B6F43F004032B67D0E72A6F22F0B8
:100F9C0001022A672A6F22F004022A67002BCAD1A9
:100FAC00FFF794FD41F2883806462B6F9807CBD596
:100FBC00FFF78CFD801B4045F7D915E7FFF786FD41
:100FCC00401B4045BDD90FE70038024000004742A6
:100FDC0000700040364DAB6803F00C03082B3DD07D
:100FEC00344B002202281A662BD1FFF76FFD064600
:100FFC002B6899011FD4D4E907321343626A43EA80
:10100C008213E26A43EA0263A26A5208013A43EA93
:10101C0002436B60274B264D01221A66FFF756FDE3
:10102C0004462B689A013FF5B1AEFFF74FFD001B4C
:10103C000228F6D9D8E6FFF749FD801B0228D7D93C
:10104C00D2E6FFF743FD04462B689B017FF59EAE6D
:10105C00FFF73CFD001B0228F6D9C5E601283FF43A
:10106C00C4AE6B68E26903F4800191427FF4A5AED3
:10107C00216A03F03F028A427FF49FAE616A47F611
:10108C00C0721A40B2EB811F7FF497AEA26A52086D
:10109C0003F44031013AB1EB024F7FF48EAEE26AB9
:1010AC0003F07063B3EB026F3FF470AE85E600BFE4
:1010BC000038024000004742134908B58B6803F022
:1010CC000C03042B1CD0082B1CD14A684B684968B4
:1010DC0013F4800314BF0D480D48C1F3881118BFD9
:1010EC00002302F03F02A1FB0001FFF779F8064B49
:1010FC005B68C3F3014301335B00B0FBF3F008BD45
:10110C000248FCE70248FAE70038024000127A0075
:10111C000024F4002DE9F0410D46044610B90120DD
:10112C00BDE8F081434B1A6802F00F028A4228D3C3
:10113C0021688F072DD4C80740D43E4B1A6802F0A3
:10114C000F02AA4265D8226851076BD4130707D542
:10115C00394A2169936823F4604343EAC1039360DD
:10116C00FFF7AAFF344B354A9B68C3F30313D35CD8
:10117C00D840334B1860334B1868FFF75DFC0020E8
:10118C00CEE7CAB21A701B6803F00F038B42C6D1AC
:10119C00CEE7294B11F0040F1EBF9A6842F4E052BF
:1011AC009A600E0742BF9A6842F460429A609A684D
:1011BC00A06822F0F00202439A60BCE762681E4B02
:1011CC00012A1CD11B6813F4003FA8D01A4EB36837
:1011DC0023F003031343B360FFF778FC41F2883824
:1011EC000746B368626803F00C03B3EB820FA4D01C
:1011FC00FFF76CFCC01B4045F3D9032090E7911E10
:10120C0001291B6802D813F0007FDEE713F0020FF0
:10121C00DBE7EAB21A701B6803F00F03AB427FF4F2
:10122C007EAF90E70449E0688B6823F4E0530343F6
:10123C008B608BE7003C024000380240941C000895
:10124C000000002008000020044B054A9B68C3F3F3
:10125C008223D35C034A1068D840704700380240A0
:10126C00A41C000800000020044B054A9B68C3F333
:10127C004233D35C034A1068D840704700380240B0
:10128C00A41C000800000020036A026A22F001027C
:10129C00026270B5446882690D6822F073022A43B9
:1012AC008D6823F002032B430E4DA84202D00E4E44
:1012BC00B04210D1CE6823F008033343A84223F088
:1012CC00040302D0084DA84205D1D1E9055624F4F7
:1012DC00407435432C43446082614A684263036224
:1012EC0070BD00BF0000014000040140036A026AA7
:1012FC0022F48072026270B54468C2690D6822F0F3
:10130C0073022A438D6823F4007343EA0523114DBD
:10131C00A84203D005F58065A84214D1CD6823F40A
:10132C00006343EA05230B4DA84223F4806303D0EA
:10133C0005F58065A84206D1D1E9055624F4405440
:10134C00354344EA05144460C2614A68C2630362CF
:10135C0070BD00BF00000140036A026A22F4805293
:10136C00026230B54468C2690D6822F4E64242EA72
:10137C0005228D6823F4005343EA0533084DA84237
:10138C0003D005F58065A84204D14D6924F480444E
:10139C0044EA85144460C2614A680264036230BD49
:1013AC000000014070477047334A0368904212D0E6
:1013BC00B0F1804F0FD0A2F57C4290420BD002F5D9
:1013CC008062904207D002F58062904203D002F511
:1013DC007842904219D14A6823F070031343264A8D
:1013EC00904229D0B0F1804F26D0A2F57C42904299
:1013FC0022D002F5806290421ED002F580629042AB
:10140C001AD002F57842904216D01C4A904213D062
:10141C0002F5806290420FD002F5806290420BD0B0
:10142C00A2F59832904207D002F58062904203D028
:10143C0002F58062904203D1CA6823F440731343CF
:10144C004A6923F08003134303608B68C3620B6803
:10145C008362094B984203D003F58063984201D113
:10146C000B690363012343610369DB0742BF036913
:10147C0023F001030361704700000140004001406C
:10148C0010B5044630B390F83D3003F0FF021BB9A1
:10149C0080F83C20FFF7EAF90223206884F83D30FD
:1014AC00211DFFF781FF012384F84630002084F8CA
:1014BC003E3084F83F3084F8403084F8413084F872
:1014CC00423084F8433084F8443084F8453084F852
:1014DC003D3010BD0120FCE710B5044630B390F848
:1014EC003D3003F0FF021BB980F83C20FFF75AFF98
:1014FC000223206884F83D30211DFFF755FF01239E
:10150C0084F84630002084F83E3084F83F3084F86C
:10151C00403084F8413084F8423084F8433084F809
:10152C00443084F8453084F83D3010BD0120FCE790
:10153C0010B5044630B390F83D3003F0FF021BB9F0
:10154C0080F83C20FFF72FFF0223206884F83D3001
:10155C00211DFFF729FF012384F84630002084F871
:10156C003E3084F83F3084F8403084F8413084F8C1
:10157C00423084F8433084F8443084F8453084F8A1
:10158C003D3010BD0120FCE7036A026A22F0100214
:10159C00026270B5446882690D6822F4E64242EA40
:1015AC0005228D6823F0200343EA0513104DA84251
:1015BC0003D005F58065A84214D1CD6823F08003D3
:1015CC0043EA05130A4DA84223F0400303D005F566
:1015DC008065A84206D1D1E9055624F44064354310
:1015EC0044EA8504446082614A688263036270BD88
:1015FC000000014038B590F83C30012B05461DD059
:10160C00082A17D007D862B1042A0FD00120002372
:10161C0085F83C3038BD0C2AF8D10068FFF79CFEE9
:10162C0002E00068FFF730FE0020F0E70068FFF7EB
:10163C00ABFFF9E70068FFF759FEF5E70220E9E791
:10164C0070B590F83C30012B054650D00123082A88
:10165C0080F83C303BD007D8C2B1042A27D01846BA
:10166C00002385F83C3070BD0C2AF8D10068FFF7D8
:10167C0073FEC3690A6943F40063C361C36923F44D
:10168C008063C361C36943EA02232EE00068FFF75D
:10169C00FBFD83690A6943F008038361836923F0C6
:1016AC00040383618369134383610020D8E70068D6
:1016BC00FFF76AFF83690A6943F4006383618369F6
:1016CC0023F480638361836943EA0223ECE70068B7
:1016DC00FFF70CFEC3690A6943F00803C361C369D1
:1016EC0023F00403C361C3691343C361DDE7022024
:1016FC00B9E710B58468114324F47F4441EA03230D
:10170C002343836010BD38B590F83C30012B044660
:10171C004FF0020300F08E80012280F83D3080F8FB
:10172C003C200068836823F47F4323F077038360B5
:10173C000B68602B4FD032D8402B64D016D8202B9E
:10174C000DD00AD833F0100109D0012384F83D30B4
:10175C00002384F83C30104638BD302BF5D182681C
:10176C0022F07002134343F0070328E0502BECD116
:10177C004A68CD68016A036A23F001030362836936
:10178C0021F00A0123F0F00343EA05130A438361B5
:10179C000262836823F0700343F057030FE0B3F544
:1017AC00805F0DD0B3F5005F0CD0702BCDD1CB6822
:1017BC00D1E90121FFF79DFF836843F07703836034
:1017CC000022C2E7CB68D1E90121FFF792FF8368C1
:1017DC0043F48043F3E7036A026A4D68C96822F058
:1017EC0010020262826923F0A00322F4704243EAE1
:1017FC00051342EA013282610362836823F07003AD
:10180C0043F06703DBE74A68CD68016A036A23F09B
:10181C0001030362836921F00A0123F0F00343EA18
:10182C0005130A4383610262836823F0700343F05B
:10183C004703C4E71A468EE700684B68826822F0BB
:10184C00700210B51A430C6822F007022243502B89
:10185C0082602CD010D8402B19D04BD8202B14D010
:10186C0005D833F0100314BF0120002010BDB3F1D4
:10187C00300018BF0120F9E7602B28D0702B39D12C
:10188C000B69D1E90221FFF734FF0020EEE7052CAC
:10189C0030D0026A036A096923F001030362836989
:1018AC0023F0F00343EA011383610262EDE78A68D7
:1018BC000C69016A036A23F001030362836921F056
:1018CC000A0123F0F00343EA04130A43ECE7036A2A
:1018DC00026A8C68096922F010020262826923F0A4
:1018EC00A00322F4704242EA013243EA04138261FB
:1018FC000362CAE70120B9E738B590F83C30012BF8
:10190C0004464FF002031CD0012580F83C5080F8AF
:10191C003D30FFF791FF30B1002384F83D5084F83F
:10192C003C30284638BD2368DA6822F04002DA6081
:10193C00DA6822F48042DA6084F83D5084F83C0086
:10194C00F0E71846EEE7036A01F01F0110B5012419
:10195C008C4023EA04030362036A8A401A4302623E
:10196C0010BD000008B529B990F83E30012B18D0F5
:10197C0001202CE004290DD190F83F30013B18BF19
:10198C000123002BF4D104294FF0020320D180F85D
:10199C003F3009E008290CBF90F8403090F84130F6
:1019AC00ECE7022380F83E3000680122FFF7CBFF02
:1019BC001C4A904213D01C4B984210D0B0F1804F6F
:1019CC0014D1836803F00703062B26D1002008BD31
:1019DC0008290CBF80F8403080F84130E4E7436CB4
:1019EC00904243F400434364EBD0E7E70F4B98423B
:1019FC00E7D003F580639842E3D003F58063984207
:101A0C00DFD003F578439842DBD003F5705398424E
:101A1C00D7D0A3F594339842D3D0036843F0010395
:101A2C000360D3E7000001400004014000040040C3
:101A3C00FFF798BF30B590F83C30012B4FF0020304
:101A4C0032D080F83D3003680D685C689A6824F0E9
:101A5C0070042C435C60154CA3421AD0B3F1804F38
:101A6C0017D0A4F57C44A34213D004F58064A342A0
:101A7C000FD004F58064A3420BD004F57844A34244
:101A8C0007D004F57054A34203D0A4F59434A342B8
:101A9C0004D1496822F080020A439A60012380F83D
:101AAC003D30002380F83C30184630BD000001402A
:101ABC0090F83C30012B1FD0CB688A6823F440731C
:101ACC0013434A6823F4806313430A6823F40063C6
:101ADC0013430A6923F4805313434A6923F40053D4
:101AEC001343CA6923F480431343026853640023ED
:101AFC0080F83C3018467047022070470268C16875
:101B0C00136923F440530B4370B513610546836886
:101B1C000069D168034368690343E86921F41641FD
:101B2C0021F00C0103430B43D3605369A96923F4DF
:101B3C0040730B4353611F4B9A4203D003F58063F0
:101B4C009A4223D1FFF790FBEB691921B3F5004FB3
:101B5C00D5E90046A0FB01011BD1B2194FF00003DF
:101B6C005B41FEF73DFB6422B0FBF2F102FB11037B
:101B7C00DB003233B3FBF2F303F007025B0002EB42
:101B8C00011203F4F8731344A36070BDFFF75CFB00
:101B9C00DAE7B200B30FFEF723FB6422B0FBF2F1DD
:101BAC0002FB11031B013233B3FBF2F303EB011302
:101BBC00EAE700BF0010014010B5044648B390F8A6
:101BCC00413003F0FF021BB980F84020FEF7C0FE45
:101BDC002268242384F84130D36823F40053D36063
:101BEC002046FFF78BFF23681A6922F490421A6192
:101BFC005A6922F02A025A61DA6842F40052DA6019
:101C0C0000202023606484F8413084F84230606303
:101C1C0010BD0120FCE702440346934200D17047FB
:101C2C0003F8011BF9E7000070B50D4D0D4C641B5A
:101C3C00A4100026A64209D10B4D0C4C00F018F84C
:101C4C00641BA4100026A64205D170BD55F8043BB8
:101C5C0098470136EEE755F8043B98470136F2E712
:101C6C00B41C0008B41C0008B41C0008B81C000804
:101C7C00F8B500BFF8BC08BC9E467047F8B500BF6D
:081C8C00F8BC08BC9E4670473D
:101C94000000000000000000010203040607080918
:081CA40000000000010203042E
:081CAC0070E5FF7F010000005C
:041CB400D101000852
:041CB800AD01000872
:0C1CBC000024F4000100000010000000F3
:04000005080009F1F5
:00000001FF
